{
  "abi": [
    {
      "inputs": [],
      "stateMutability": "nonpayable",
      "type": "constructor"
    },
    {
      "anonymous": false,
      "inputs": [
        {
          "indexed": false,
          "internalType": "uint8",
          "name": "version",
          "type": "uint8"
        }
      ],
      "name": "Initialized",
      "type": "event"
    },
    {
      "anonymous": false,
      "inputs": [
        {
          "indexed": true,
          "internalType": "address",
          "name": "from",
          "type": "address"
        },
        {
          "indexed": true,
          "internalType": "address",
          "name": "to",
          "type": "address"
        },
        {
          "indexed": false,
          "internalType": "bool",
          "name": "status",
          "type": "bool"
        }
      ],
      "name": "TransferApprovalChanged",
      "type": "event"
    },
    {
      "inputs": [],
      "name": "controller",
      "outputs": [
        {
          "internalType": "contract ERC721",
          "name": "",
          "type": "address"
        }
      ],
      "stateMutability": "view",
      "type": "function"
    },
    {
      "inputs": [],
      "name": "controllerId",
      "outputs": [
        {
          "internalType": "uint256",
          "name": "",
          "type": "uint256"
        }
      ],
      "stateMutability": "view",
      "type": "function"
    },
    {
      "inputs": [
        {
          "internalType": "address",
          "name": "target",
          "type": "address"
        },
        {
          "internalType": "bytes",
          "name": "callData",
          "type": "bytes"
        }
      ],
      "name": "execute",
      "outputs": [
        {
          "internalType": "bytes",
          "name": "",
          "type": "bytes"
        }
      ],
      "stateMutability": "payable",
      "type": "function"
    },
    {
      "inputs": [
        {
          "internalType": "address",
          "name": "target",
          "type": "address"
        },
        {
          "internalType": "bytes",
          "name": "callData",
          "type": "bytes"
        },
        {
          "internalType": "uint256",
          "name": "value",
          "type": "uint256"
        }
      ],
      "name": "execute",
      "outputs": [
        {
          "internalType": "bytes",
          "name": "",
          "type": "bytes"
        }
      ],
      "stateMutability": "payable",
      "type": "function"
    },
    {
      "inputs": [
        {
          "internalType": "uint256",
          "name": "_controllerId",
          "type": "uint256"
        }
      ],
      "name": "initialize",
      "outputs": [],
      "stateMutability": "nonpayable",
      "type": "function"
    },
    {
      "inputs": [],
      "name": "owner",
      "outputs": [
        {
          "internalType": "address",
          "name": "",
          "type": "address"
        }
      ],
      "stateMutability": "view",
      "type": "function"
    },
    {
      "inputs": [
        {
          "internalType": "address",
          "name": "target",
          "type": "address"
        },
        {
          "internalType": "bytes",
          "name": "callData",
          "type": "bytes"
        },
        {
          "internalType": "uint256",
          "name": "value",
          "type": "uint256"
        }
      ],
      "name": "rawExecute",
      "outputs": [
        {
          "internalType": "bytes",
          "name": "",
          "type": "bytes"
        }
      ],
      "stateMutability": "payable",
      "type": "function"
    },
    {
      "stateMutability": "payable",
      "type": "receive"
    }
  ],
  "bytecode": {
    "object": "0x608060405234801561001057600080fd5b50600054610100900460ff16158080156100315750600054600160ff909116105b8061005c575061004a3061013260201b61059d1760201c565b15801561005c575060005460ff166001145b6100c35760405162461bcd60e51b815260206004820152602e60248201527f496e697469616c697a61626c653a20636f6e747261637420697320616c72656160448201526d191e481a5b9a5d1a585b1a5e995960921b606482015260840160405180910390fd5b6000805460ff1916600117905580156100e6576000805461ff0019166101001790555b801561012c576000805461ff0019169055604051600181527f7f26b83ff96e1f2b6a682f133852f6798a09c465da95921460cefb38474024989060200160405180910390a15b50610141565b6001600160a01b03163b151590565b6109af806101506000396000f3fe6080604052600436106100745760003560e01c80639a68cdc71161004e5780639a68cdc7146100e9578063a04a09081461010d578063f77c479114610120578063fe4b84df1461014057600080fd5b80631cff79cd1461008057806321fe600d146100a95780638da5cb5b146100bc57600080fd5b3661007b57005b600080fd5b61009361008e3660046107f2565b610162565b6040516100a09190610892565b60405180910390f35b6100936100b73660046108a5565b61020c565b3480156100c857600080fd5b506100d161034d565b6040516001600160a01b0390911681526020016100a0565b3480156100f557600080fd5b506100ff60015481565b6040519081526020016100a0565b61009361011b3660046108a5565b6103c4565b34801561012c57600080fd5b506002546100d1906001600160a01b031681565b34801561014c57600080fd5b5061016061015b3660046108fe565b61046f565b005b6002546001546040516331a9108f60e11b815260048101919091526060916001600160a01b031690636352211e90602401602060405180830381865afa1580156101b0573d6000803e3d6000fd5b505050506040513d601f19601f820116820180604052508101906101d49190610917565b6001600160a01b0316336001600160a01b0316146101f157600080fd5b6102056001600160a01b03841683346105ac565b9392505050565b6002546001546040516331a9108f60e11b815260048101919091526060916001600160a01b031690636352211e90602401602060405180830381865afa15801561025a573d6000803e3d6000fd5b505050506040513d601f19601f8201168201806040525081019061027e9190610917565b6001600160a01b0316336001600160a01b03161461029b57600080fd5b600080856001600160a01b031684866040516102b79190610934565b60006040518083038185875af1925050503d80600081146102f4576040519150601f19603f3d011682016040523d82523d6000602084013e6102f9565b606091505b5091509150816103445760405162461bcd60e51b81526020600482015260116024820152704661696c656420746f206578656375746560781b60448201526064015b60405180910390fd5b95945050505050565b6002546001546040516331a9108f60e11b815260048101919091526000916001600160a01b031690636352211e90602401602060405180830381865afa15801561039b573d6000803e3d6000fd5b505050506040513d601f19601f820116820180604052508101906103bf9190610917565b905090565b6002546001546040516331a9108f60e11b815260048101919091526060916001600160a01b031690636352211e90602401602060405180830381865afa158015610412573d6000803e3d6000fd5b505050506040513d601f19601f820116820180604052508101906104369190610917565b6001600160a01b0316336001600160a01b03161461045357600080fd5b6104676001600160a01b03851684846105ac565b949350505050565b600054610100900460ff161580801561048f5750600054600160ff909116105b806104a95750303b1580156104a9575060005460ff166001145b61050c5760405162461bcd60e51b815260206004820152602e60248201527f496e697469616c697a61626c653a20636f6e747261637420697320616c72656160448201526d191e481a5b9a5d1a585b1a5e995960921b606482015260840161033b565b6000805460ff19166001179055801561052f576000805461ff0019166101001790555b6000821161053c57600080fd5b6001829055600280546001600160a01b031916331790558015610599576000805461ff0019169055604051600181527f7f26b83ff96e1f2b6a682f133852f6798a09c465da95921460cefb38474024989060200160405180910390a15b5050565b6001600160a01b03163b151590565b60606104678484846040518060600160405280602981526020016109516029913960608247101561062e5760405162461bcd60e51b815260206004820152602660248201527f416464726573733a20696e73756666696369656e742062616c616e636520666f6044820152651c8818d85b1b60d21b606482015260840161033b565b6001600160a01b0385163b6106855760405162461bcd60e51b815260206004820152601d60248201527f416464726573733a2063616c6c20746f206e6f6e2d636f6e7472616374000000604482015260640161033b565b600080866001600160a01b031685876040516106a19190610934565b60006040518083038185875af1925050503d80600081146106de576040519150601f19603f3d011682016040523d82523d6000602084013e6106e3565b606091505b50915091506106f38282866106fe565b979650505050505050565b6060831561070d575081610205565b82511561071d5782518084602001fd5b8160405162461bcd60e51b815260040161033b9190610892565b6001600160a01b038116811461074c57600080fd5b50565b634e487b7160e01b600052604160045260246000fd5b600082601f83011261077657600080fd5b813567ffffffffffffffff808211156107915761079161074f565b604051601f8301601f19908116603f011681019082821181831017156107b9576107b961074f565b816040528381528660208588010111156107d257600080fd5b836020870160208301376000602085830101528094505050505092915050565b6000806040838503121561080557600080fd5b823561081081610737565b9150602083013567ffffffffffffffff81111561082c57600080fd5b61083885828601610765565b9150509250929050565b60005b8381101561085d578181015183820152602001610845565b50506000910152565b6000815180845261087e816020860160208601610842565b601f01601f19169290920160200192915050565b6020815260006102056020830184610866565b6000806000606084860312156108ba57600080fd5b83356108c581610737565b9250602084013567ffffffffffffffff8111156108e157600080fd5b6108ed86828701610765565b925050604084013590509250925092565b60006020828403121561091057600080fd5b5035919050565b60006020828403121561092957600080fd5b815161020581610737565b60008251610946818460208701610842565b919091019291505056fe416464726573733a206c6f772d6c6576656c2063616c6c20776974682076616c7565206661696c6564a26469706673582212206f65ee682c35372d7afe1ad7c7c8f649532248105c55d70d5d140286448a17ea64736f6c63430008110033",
    "linkReferences": {}
  },
  "methodIdentifiers": {
    "controller()": "f77c4791",
    "controllerId()": "9a68cdc7",
    "execute(address,bytes)": "1cff79cd",
    "execute(address,bytes,uint256)": "a04a0908",
    "initialize(uint256)": "fe4b84df",
    "owner()": "8da5cb5b",
    "rawExecute(address,bytes,uint256)": "21fe600d"
  },
  "id": 16
}