{
  "abi": [
    {
      "inputs": [],
      "stateMutability": "nonpayable",
      "type": "constructor"
    },
    {
      "anonymous": false,
      "inputs": [
        {
          "indexed": true,
          "internalType": "address",
          "name": "owner",
          "type": "address"
        },
        {
          "indexed": true,
          "internalType": "address",
          "name": "spender",
          "type": "address"
        },
        {
          "indexed": true,
          "internalType": "uint256",
          "name": "id",
          "type": "uint256"
        }
      ],
      "name": "Approval",
      "type": "event"
    },
    {
      "anonymous": false,
      "inputs": [
        {
          "indexed": true,
          "internalType": "address",
          "name": "owner",
          "type": "address"
        },
        {
          "indexed": true,
          "internalType": "address",
          "name": "operator",
          "type": "address"
        },
        {
          "indexed": false,
          "internalType": "bool",
          "name": "approved",
          "type": "bool"
        }
      ],
      "name": "ApprovalForAll",
      "type": "event"
    },
    {
      "anonymous": false,
      "inputs": [
        {
          "indexed": true,
          "internalType": "address",
          "name": "from",
          "type": "address"
        },
        {
          "indexed": true,
          "internalType": "address",
          "name": "to",
          "type": "address"
        },
        {
          "indexed": true,
          "internalType": "uint256",
          "name": "id",
          "type": "uint256"
        }
      ],
      "name": "Transfer",
      "type": "event"
    },
    {
      "anonymous": false,
      "inputs": [
        {
          "indexed": true,
          "internalType": "address",
          "name": "wallet",
          "type": "address"
        },
        {
          "indexed": true,
          "internalType": "address",
          "name": "owner",
          "type": "address"
        }
      ],
      "name": "WalletCreated",
      "type": "event"
    },
    {
      "inputs": [
        {
          "internalType": "address",
          "name": "spender",
          "type": "address"
        },
        {
          "internalType": "uint256",
          "name": "id",
          "type": "uint256"
        }
      ],
      "name": "approve",
      "outputs": [],
      "stateMutability": "nonpayable",
      "type": "function"
    },
    {
      "inputs": [
        {
          "internalType": "address",
          "name": "owner",
          "type": "address"
        }
      ],
      "name": "balanceOf",
      "outputs": [
        {
          "internalType": "uint256",
          "name": "",
          "type": "uint256"
        }
      ],
      "stateMutability": "view",
      "type": "function"
    },
    {
      "inputs": [],
      "name": "createWallet",
      "outputs": [
        {
          "internalType": "address",
          "name": "wallet",
          "type": "address"
        }
      ],
      "stateMutability": "nonpayable",
      "type": "function"
    },
    {
      "inputs": [
        {
          "internalType": "address",
          "name": "owner",
          "type": "address"
        }
      ],
      "name": "createWallet",
      "outputs": [
        {
          "internalType": "address",
          "name": "wallet",
          "type": "address"
        }
      ],
      "stateMutability": "nonpayable",
      "type": "function"
    },
    {
      "inputs": [
        {
          "internalType": "uint256",
          "name": "",
          "type": "uint256"
        }
      ],
      "name": "getApproved",
      "outputs": [
        {
          "internalType": "address",
          "name": "",
          "type": "address"
        }
      ],
      "stateMutability": "view",
      "type": "function"
    },
    {
      "inputs": [
        {
          "internalType": "address",
          "name": "",
          "type": "address"
        },
        {
          "internalType": "address",
          "name": "",
          "type": "address"
        }
      ],
      "name": "isApprovedForAll",
      "outputs": [
        {
          "internalType": "bool",
          "name": "",
          "type": "bool"
        }
      ],
      "stateMutability": "view",
      "type": "function"
    },
    {
      "inputs": [],
      "name": "masterWallet",
      "outputs": [
        {
          "internalType": "address",
          "name": "",
          "type": "address"
        }
      ],
      "stateMutability": "view",
      "type": "function"
    },
    {
      "inputs": [],
      "name": "name",
      "outputs": [
        {
          "internalType": "string",
          "name": "",
          "type": "string"
        }
      ],
      "stateMutability": "view",
      "type": "function"
    },
    {
      "inputs": [
        {
          "internalType": "uint256",
          "name": "id",
          "type": "uint256"
        }
      ],
      "name": "ownerOf",
      "outputs": [
        {
          "internalType": "address",
          "name": "owner",
          "type": "address"
        }
      ],
      "stateMutability": "view",
      "type": "function"
    },
    {
      "inputs": [
        {
          "internalType": "address",
          "name": "from",
          "type": "address"
        },
        {
          "internalType": "address",
          "name": "to",
          "type": "address"
        },
        {
          "internalType": "uint256",
          "name": "id",
          "type": "uint256"
        }
      ],
      "name": "safeTransferFrom",
      "outputs": [],
      "stateMutability": "nonpayable",
      "type": "function"
    },
    {
      "inputs": [
        {
          "internalType": "address",
          "name": "from",
          "type": "address"
        },
        {
          "internalType": "address",
          "name": "to",
          "type": "address"
        },
        {
          "internalType": "uint256",
          "name": "id",
          "type": "uint256"
        },
        {
          "internalType": "bytes",
          "name": "data",
          "type": "bytes"
        }
      ],
      "name": "safeTransferFrom",
      "outputs": [],
      "stateMutability": "nonpayable",
      "type": "function"
    },
    {
      "inputs": [
        {
          "internalType": "address",
          "name": "operator",
          "type": "address"
        },
        {
          "internalType": "bool",
          "name": "approved",
          "type": "bool"
        }
      ],
      "name": "setApprovalForAll",
      "outputs": [],
      "stateMutability": "nonpayable",
      "type": "function"
    },
    {
      "inputs": [
        {
          "internalType": "bytes4",
          "name": "interfaceId",
          "type": "bytes4"
        }
      ],
      "name": "supportsInterface",
      "outputs": [
        {
          "internalType": "bool",
          "name": "",
          "type": "bool"
        }
      ],
      "stateMutability": "view",
      "type": "function"
    },
    {
      "inputs": [],
      "name": "symbol",
      "outputs": [
        {
          "internalType": "string",
          "name": "",
          "type": "string"
        }
      ],
      "stateMutability": "view",
      "type": "function"
    },
    {
      "inputs": [],
      "name": "tokenCount",
      "outputs": [
        {
          "internalType": "uint256",
          "name": "",
          "type": "uint256"
        }
      ],
      "stateMutability": "view",
      "type": "function"
    },
    {
      "inputs": [
        {
          "internalType": "uint256",
          "name": "id",
          "type": "uint256"
        }
      ],
      "name": "tokenURI",
      "outputs": [
        {
          "internalType": "string",
          "name": "",
          "type": "string"
        }
      ],
      "stateMutability": "view",
      "type": "function"
    },
    {
      "inputs": [
        {
          "internalType": "address",
          "name": "from",
          "type": "address"
        },
        {
          "internalType": "address",
          "name": "to",
          "type": "address"
        },
        {
          "internalType": "uint256",
          "name": "id",
          "type": "uint256"
        }
      ],
      "name": "transferFrom",
      "outputs": [],
      "stateMutability": "nonpayable",
      "type": "function"
    },
    {
      "inputs": [
        {
          "internalType": "address",
          "name": "",
          "type": "address"
        }
      ],
      "name": "walletExists",
      "outputs": [
        {
          "internalType": "bool",
          "name": "",
          "type": "bool"
        }
      ],
      "stateMutability": "view",
      "type": "function"
    }
  ],
  "bytecode": {
    "object": "0x60a060405260006006553480156200001657600080fd5b506040518060400160405280601081526020016f1391950814db585c9d0815d85b1b195d60821b815250604051806040016040528060068152602001654e46542d535760d01b8152508160009081620000709190620002d0565b5060016200007f8282620002d0565b505050620000953060006200010a60201b60201c565b600680546001019055604051620000ac906200021d565b604051809103906000f080158015620000c9573d6000803e3d6000fd5b506001600160a01b031660808190526040513091907f5b03bfed1c14a02bdeceb5fa582eb1a5765fc0bc64ca0e6af4c20afc9487f08190600090a36200039c565b6001600160a01b0382166200015a5760405162461bcd60e51b81526020600482015260116024820152701253959053125117d49150d25412515395607a1b60448201526064015b60405180910390fd5b6000818152600260205260409020546001600160a01b031615620001b25760405162461bcd60e51b815260206004820152600e60248201526d1053149150511657d3525395115160921b604482015260640162000151565b6001600160a01b038216600081815260036020908152604080832080546001019055848352600290915280822080546001600160a01b0319168417905551839291907fddf252ad1be2c89b69c2b068fc378daa952ba7f163c4a11628f55a4df523b3ef908290a45050565b610aff806200138483390190565b634e487b7160e01b600052604160045260246000fd5b600181811c908216806200025657607f821691505b6020821081036200027757634e487b7160e01b600052602260045260246000fd5b50919050565b601f821115620002cb57600081815260208120601f850160051c81016020861015620002a65750805b601f850160051c820191505b81811015620002c757828155600101620002b2565b5050505b505050565b81516001600160401b03811115620002ec57620002ec6200022b565b6200030481620002fd845462000241565b846200027d565b602080601f8311600181146200033c5760008415620003235750858301515b600019600386901b1c1916600185901b178555620002c7565b600085815260208120601f198616915b828110156200036d578886015182559484019460019091019084016200034c565b50858210156200038c5787850151600019600388901b60f8161c191681555b5050505050600190811b01905550565b608051610fc5620003bf600039600081816102e501526109dd0152610fc56000f3fe608060405234801561001057600080fd5b50600436106101165760003560e01c806370a08231116100a2578063b054a9e811610071578063b054a9e814610257578063b88d4fde1461026a578063c87b56dd1461027d578063e985e9c5146102b2578063fc0d0117146102e057600080fd5b806370a082311461021257806395d89b41146102335780639f181b5e1461023b578063a22cb4651461024457600080fd5b806311ebbf24116100e957806311ebbf24146101ae57806323b872dd146101b65780632c03abe2146101c957806342842e0e146101ec5780636352211e146101ff57600080fd5b806301ffc9a71461011b57806306fdde0314610143578063081812fc14610158578063095ea7b314610199575b600080fd5b61012e610129366004610c90565b610307565b60405190151581526020015b60405180910390f35b61014b610359565b60405161013a9190610cb4565b610181610166366004610d02565b6004602052600090815260409020546001600160a01b031681565b6040516001600160a01b03909116815260200161013a565b6101ac6101a7366004610d32565b6103e7565b005b6101816104ce565b6101ac6101c4366004610d5c565b6104de565b61012e6101d7366004610d98565b60076020526000908152604090205460ff1681565b6101ac6101fa366004610d5c565b6106a5565b61018161020d366004610d02565b61079d565b610225610220366004610d98565b6107f4565b60405190815260200161013a565b61014b610857565b61022560065481565b6101ac610252366004610db3565b610864565b610181610265366004610d98565b6108d0565b6101ac610278366004610def565b6108db565b61014b61028b366004610d02565b5060408051633539b7b760e11b602082015281516004818303018152602490910190915290565b61012e6102c0366004610e8a565b600560209081526000928352604080842090915290825290205460ff1681565b6101817f000000000000000000000000000000000000000000000000000000000000000081565b60006301ffc9a760e01b6001600160e01b03198316148061033857506380ac58cd60e01b6001600160e01b03198316145b806103535750635b5e139f60e01b6001600160e01b03198316145b92915050565b6000805461036690610ebd565b80601f016020809104026020016040519081016040528092919081815260200182805461039290610ebd565b80156103df5780601f106103b4576101008083540402835291602001916103df565b820191906000526020600020905b8154815290600101906020018083116103c257829003601f168201915b505050505081565b6000818152600260205260409020546001600160a01b03163381148061043057506001600160a01b038116600090815260056020908152604080832033845290915290205460ff165b6104725760405162461bcd60e51b815260206004820152600e60248201526d1393d517d055551213d49256915160921b60448201526064015b60405180910390fd5b60008281526004602052604080822080546001600160a01b0319166001600160a01b0387811691821790925591518593918516917f8c5be1e5ebec7d5bd14f71427d1e84f3dd0314c0f7b2291e5b200ac8c7c3b92591a4505050565b60006104d9336109c3565b905090565b6000818152600260205260409020546001600160a01b038481169116146105345760405162461bcd60e51b815260206004820152600a60248201526957524f4e475f46524f4d60b01b6044820152606401610469565b6001600160a01b03821661057e5760405162461bcd60e51b81526020600482015260116024820152701253959053125117d49150d25412515395607a1b6044820152606401610469565b336001600160a01b03841614806105b857506001600160a01b038316600090815260056020908152604080832033845290915290205460ff165b806105d957506000818152600460205260409020546001600160a01b031633145b6106165760405162461bcd60e51b815260206004820152600e60248201526d1393d517d055551213d49256915160921b6044820152606401610469565b6001600160a01b0380841660008181526003602090815260408083208054600019019055938616808352848320805460010190558583526002825284832080546001600160a01b03199081168317909155600490925284832080549092169091559251849392917fddf252ad1be2c89b69c2b068fc378daa952ba7f163c4a11628f55a4df523b3ef91a4505050565b6106b08383836104de565b6001600160a01b0382163b15806107595750604051630a85bd0160e11b8082523360048301526001600160a01b03858116602484015260448301849052608060648401526000608484015290919084169063150b7a029060a4016020604051808303816000875af1158015610729573d6000803e3d6000fd5b505050506040513d601f19601f8201168201806040525081019061074d9190610ef7565b6001600160e01b031916145b6107985760405162461bcd60e51b815260206004820152601060248201526f155394d0519157d49150d2541251539560821b6044820152606401610469565b505050565b6000818152600260205260409020546001600160a01b0316806107ef5760405162461bcd60e51b815260206004820152600a6024820152691393d517d3525395115160b21b6044820152606401610469565b919050565b60006001600160a01b03821661083b5760405162461bcd60e51b815260206004820152600c60248201526b5a45524f5f4144445245535360a01b6044820152606401610469565b506001600160a01b031660009081526003602052604090205490565b6001805461036690610ebd565b3360008181526005602090815260408083206001600160a01b03871680855290835292819020805460ff191686151590811790915590519081529192917f17307eab39ab6107e8899845ad3d59bd9653f200f220920489ca2b5937696c31910160405180910390a35050565b6000610353826109c3565b6108e68585856104de565b6001600160a01b0384163b158061097d5750604051630a85bd0160e11b808252906001600160a01b0386169063150b7a029061092e9033908a90899089908990600401610f14565b6020604051808303816000875af115801561094d573d6000803e3d6000fd5b505050506040513d601f19601f820116820180604052508101906109719190610ef7565b6001600160e01b031916145b6109bc5760405162461bcd60e51b815260206004820152601060248201526f155394d0519157d49150d2541251539560821b6044820152606401610469565b5050505050565b60006001600160a01b0382166109d857600080fd5b610a017f0000000000000000000000000000000000000000000000000000000000000000610ad4565b6006805491925081906000610a1583610f68565b9190505550610a248382610b6c565b60405163fe4b84df60e01b8152600481018290526001600160a01b0383169063fe4b84df90602401600060405180830381600087803b158015610a6657600080fd5b505af1158015610a7a573d6000803e3d6000fd5b5050506001600160a01b03808416600081815260076020526040808220805460ff1916600117905551928716935090917f5b03bfed1c14a02bdeceb5fa582eb1a5765fc0bc64ca0e6af4c20afc9487f0819190a350919050565b6000604051733d602d80600a3d3981f3363d3d373d3d3d363d7360601b81528260601b60148201526e5af43d82803e903d91602b57fd5bf360881b60288201526037816000f09150506001600160a01b0381166107ef5760405162461bcd60e51b8152602060048201526016602482015275115490cc4c4d8dce8818dc99585d194819985a5b195960521b6044820152606401610469565b6001600160a01b038216610bb65760405162461bcd60e51b81526020600482015260116024820152701253959053125117d49150d25412515395607a1b6044820152606401610469565b6000818152600260205260409020546001600160a01b031615610c0c5760405162461bcd60e51b815260206004820152600e60248201526d1053149150511657d3525395115160921b6044820152606401610469565b6001600160a01b038216600081815260036020908152604080832080546001019055848352600290915280822080546001600160a01b0319168417905551839291907fddf252ad1be2c89b69c2b068fc378daa952ba7f163c4a11628f55a4df523b3ef908290a45050565b6001600160e01b031981168114610c8d57600080fd5b50565b600060208284031215610ca257600080fd5b8135610cad81610c77565b9392505050565b600060208083528351808285015260005b81811015610ce157858101830151858201604001528201610cc5565b506000604082860101526040601f19601f8301168501019250505092915050565b600060208284031215610d1457600080fd5b5035919050565b80356001600160a01b03811681146107ef57600080fd5b60008060408385031215610d4557600080fd5b610d4e83610d1b565b946020939093013593505050565b600080600060608486031215610d7157600080fd5b610d7a84610d1b565b9250610d8860208501610d1b565b9150604084013590509250925092565b600060208284031215610daa57600080fd5b610cad82610d1b565b60008060408385031215610dc657600080fd5b610dcf83610d1b565b915060208301358015158114610de457600080fd5b809150509250929050565b600080600080600060808688031215610e0757600080fd5b610e1086610d1b565b9450610e1e60208701610d1b565b935060408601359250606086013567ffffffffffffffff80821115610e4257600080fd5b818801915088601f830112610e5657600080fd5b813581811115610e6557600080fd5b896020828501011115610e7757600080fd5b9699959850939650602001949392505050565b60008060408385031215610e9d57600080fd5b610ea683610d1b565b9150610eb460208401610d1b565b90509250929050565b600181811c90821680610ed157607f821691505b602082108103610ef157634e487b7160e01b600052602260045260246000fd5b50919050565b600060208284031215610f0957600080fd5b8151610cad81610c77565b6001600160a01b038681168252851660208201526040810184905260806060820181905281018290526000828460a0840137600060a0848401015260a0601f19601f85011683010190509695505050505050565b600060018201610f8857634e487b7160e01b600052601160045260246000fd5b506001019056fea26469706673582212205158c2fbe3656b15ad77b4c533bcce02493fda681ccdc4d5e4649de912031f2f64736f6c63430008110033608060405234801561001057600080fd5b50600054610100900460ff16158080156100315750600054600160ff909116105b8061005c575061004a3061013260201b61059d1760201c565b15801561005c575060005460ff166001145b6100c35760405162461bcd60e51b815260206004820152602e60248201527f496e697469616c697a61626c653a20636f6e747261637420697320616c72656160448201526d191e481a5b9a5d1a585b1a5e995960921b606482015260840160405180910390fd5b6000805460ff1916600117905580156100e6576000805461ff0019166101001790555b801561012c576000805461ff0019169055604051600181527f7f26b83ff96e1f2b6a682f133852f6798a09c465da95921460cefb38474024989060200160405180910390a15b50610141565b6001600160a01b03163b151590565b6109af806101506000396000f3fe6080604052600436106100745760003560e01c80639a68cdc71161004e5780639a68cdc7146100e9578063a04a09081461010d578063f77c479114610120578063fe4b84df1461014057600080fd5b80631cff79cd1461008057806321fe600d146100a95780638da5cb5b146100bc57600080fd5b3661007b57005b600080fd5b61009361008e3660046107f2565b610162565b6040516100a09190610892565b60405180910390f35b6100936100b73660046108a5565b61020c565b3480156100c857600080fd5b506100d161034d565b6040516001600160a01b0390911681526020016100a0565b3480156100f557600080fd5b506100ff60015481565b6040519081526020016100a0565b61009361011b3660046108a5565b6103c4565b34801561012c57600080fd5b506002546100d1906001600160a01b031681565b34801561014c57600080fd5b5061016061015b3660046108fe565b61046f565b005b6002546001546040516331a9108f60e11b815260048101919091526060916001600160a01b031690636352211e90602401602060405180830381865afa1580156101b0573d6000803e3d6000fd5b505050506040513d601f19601f820116820180604052508101906101d49190610917565b6001600160a01b0316336001600160a01b0316146101f157600080fd5b6102056001600160a01b03841683346105ac565b9392505050565b6002546001546040516331a9108f60e11b815260048101919091526060916001600160a01b031690636352211e90602401602060405180830381865afa15801561025a573d6000803e3d6000fd5b505050506040513d601f19601f8201168201806040525081019061027e9190610917565b6001600160a01b0316336001600160a01b03161461029b57600080fd5b600080856001600160a01b031684866040516102b79190610934565b60006040518083038185875af1925050503d80600081146102f4576040519150601f19603f3d011682016040523d82523d6000602084013e6102f9565b606091505b5091509150816103445760405162461bcd60e51b81526020600482015260116024820152704661696c656420746f206578656375746560781b60448201526064015b60405180910390fd5b95945050505050565b6002546001546040516331a9108f60e11b815260048101919091526000916001600160a01b031690636352211e90602401602060405180830381865afa15801561039b573d6000803e3d6000fd5b505050506040513d601f19601f820116820180604052508101906103bf9190610917565b905090565b6002546001546040516331a9108f60e11b815260048101919091526060916001600160a01b031690636352211e90602401602060405180830381865afa158015610412573d6000803e3d6000fd5b505050506040513d601f19601f820116820180604052508101906104369190610917565b6001600160a01b0316336001600160a01b03161461045357600080fd5b6104676001600160a01b03851684846105ac565b949350505050565b600054610100900460ff161580801561048f5750600054600160ff909116105b806104a95750303b1580156104a9575060005460ff166001145b61050c5760405162461bcd60e51b815260206004820152602e60248201527f496e697469616c697a61626c653a20636f6e747261637420697320616c72656160448201526d191e481a5b9a5d1a585b1a5e995960921b606482015260840161033b565b6000805460ff19166001179055801561052f576000805461ff0019166101001790555b6000821161053c57600080fd5b6001829055600280546001600160a01b031916331790558015610599576000805461ff0019169055604051600181527f7f26b83ff96e1f2b6a682f133852f6798a09c465da95921460cefb38474024989060200160405180910390a15b5050565b6001600160a01b03163b151590565b60606104678484846040518060600160405280602981526020016109516029913960608247101561062e5760405162461bcd60e51b815260206004820152602660248201527f416464726573733a20696e73756666696369656e742062616c616e636520666f6044820152651c8818d85b1b60d21b606482015260840161033b565b6001600160a01b0385163b6106855760405162461bcd60e51b815260206004820152601d60248201527f416464726573733a2063616c6c20746f206e6f6e2d636f6e7472616374000000604482015260640161033b565b600080866001600160a01b031685876040516106a19190610934565b60006040518083038185875af1925050503d80600081146106de576040519150601f19603f3d011682016040523d82523d6000602084013e6106e3565b606091505b50915091506106f38282866106fe565b979650505050505050565b6060831561070d575081610205565b82511561071d5782518084602001fd5b8160405162461bcd60e51b815260040161033b9190610892565b6001600160a01b038116811461074c57600080fd5b50565b634e487b7160e01b600052604160045260246000fd5b600082601f83011261077657600080fd5b813567ffffffffffffffff808211156107915761079161074f565b604051601f8301601f19908116603f011681019082821181831017156107b9576107b961074f565b816040528381528660208588010111156107d257600080fd5b836020870160208301376000602085830101528094505050505092915050565b6000806040838503121561080557600080fd5b823561081081610737565b9150602083013567ffffffffffffffff81111561082c57600080fd5b61083885828601610765565b9150509250929050565b60005b8381101561085d578181015183820152602001610845565b50506000910152565b6000815180845261087e816020860160208601610842565b601f01601f19169290920160200192915050565b6020815260006102056020830184610866565b6000806000606084860312156108ba57600080fd5b83356108c581610737565b9250602084013567ffffffffffffffff8111156108e157600080fd5b6108ed86828701610765565b925050604084013590509250925092565b60006020828403121561091057600080fd5b5035919050565b60006020828403121561092957600080fd5b815161020581610737565b60008251610946818460208701610842565b919091019291505056fe416464726573733a206c6f772d6c6576656c2063616c6c20776974682076616c7565206661696c6564a26469706673582212206f65ee682c35372d7afe1ad7c7c8f649532248105c55d70d5d140286448a17ea64736f6c63430008110033",
    "linkReferences": {}
  },
  "methodIdentifiers": {
    "approve(address,uint256)": "095ea7b3",
    "balanceOf(address)": "70a08231",
    "createWallet()": "11ebbf24",
    "createWallet(address)": "b054a9e8",
    "getApproved(uint256)": "081812fc",
    "isApprovedForAll(address,address)": "e985e9c5",
    "masterWallet()": "fc0d0117",
    "name()": "06fdde03",
    "ownerOf(uint256)": "6352211e",
    "safeTransferFrom(address,address,uint256)": "42842e0e",
    "safeTransferFrom(address,address,uint256,bytes)": "b88d4fde",
    "setApprovalForAll(address,bool)": "a22cb465",
    "supportsInterface(bytes4)": "01ffc9a7",
    "symbol()": "95d89b41",
    "tokenCount()": "9f181b5e",
    "tokenURI(uint256)": "c87b56dd",
    "transferFrom(address,address,uint256)": "23b872dd",
    "walletExists(address)": "2c03abe2"
  },
  "id": 17
}